:100000000C9491020C94D8020C94D8020C94D8024F
:100010000C94D8020C94D8020C94D8020C94D802F8
:100020000C94D8020C94D8020C9492100C944E109C
:100030000C9483200C94D8020C94D8020C94D8020F
:100040000C94D8020C94D8020C94D8020C94D802C8
:100050000C94D8020C94730C0C94D8020C94D80213
:100060000C94D8020C94D8020C94D8020C94D802A8
:100070000C94D8020C94D8020C94D8020C94D80298
:100080000C94D8020C94D8020C94D8020C94D80288
:100090000C94D8210C94D8020C94D8020C94D80259
:1000A0000C94D8020C94D8020C94D80205010902D1
:1000B000A10185020901A100050919012905150001
:1000C00025019505750181029501750381010501E1
:1000D000093009311581257F950275088106093897
:1000E0001581257F950175088106050C0A380215D2
:1000F00081257F950175088106C0C005010980A191
:1001000001850319012AB700150126B7009501756D
:10011000108100C0050C0901A101850419012AA064
:1001200002150126A002950175108100C005010984
:1001300006A1018505050719E029E71500250195A8
:1001400008750181020507190029EF1500250195A1
:10015000F0750181020508190129059505750191C0
:1001600002950175039101C00660FF0961A10109B3
:1001700062150026FF0095207508810209631500AD
:1001800026FF00952075089102C005010906A1010E
:10019000050719E029E71500250195087501810279
:1001A0009501750881010507190029FF150026FF33
:1001B0000095067508810005081901290595057542
:1001C000019102950175039101C035001E001F00C9
:1001D0002000210022002B0014001A000800150046
:1001E0001700290004001600070009000A00E100BA
:1001F0001D001B000600190005000351E000E2008D
:10020000E30001512C0023002400250026002700D4
:100210004C001C0018000C00120013002A000B00F8
:100220000D000E000F0033003400110010003600E6
:100230003700380028002C000251500051005200B5
:100240004F00010001000100010001000100350222
:100250001E021F022002210222024C003A003B0033
:100260003C003D003E0001004000410042004300D0
:100270004400010001000100010001000100010033
:1002800001000100010001000100230224022502F7
:10029000260227024C003F002D022E022F023002C0
:1002A0003102450032026402010001000100010038
:1002B0000100AB00AA00A900AE000100010001008E
:1002C00001000100010035001E001F002000210078
:1002D00022004C003A003B003C003D003E00010083
:1002E00040004100420043004400010001000100C1
:1002F00001000100010001000100010001000100F6
:100300000100230024002500260027004C003F00A8
:100310002D002E002F003000310045003200640017
:1003200001000100010001000100AB00AA00A900CA
:10033000AE00010001000100010001000100010008
:10034000005C01000100010001000100010001004A
:100350001D5C1E5C135C0100010001000100010036
:100360000100010001000100010001000100010085
:100370000100010001000100010001000100010075
:10038000010001004C000A5C005101000100010065
:100390000100010001000100010001000100010055
:1003A0000100010001000100010000000000000048
:1003B00000000000000000000000000000007E0FB0
:1003C00000D4FFFFFFC7000000780000000000001D
:1003D00000002A2B280000000000000000000000A0
:1003E000000000000029000000002C1E3420212203
:1003F00024342627252E362D3738271E1F2021226C
:10040000232425263333362E37381F0405060708E4
:10041000090A0B0C0D0E0F101112131415161718D4
:10042000191A1B1C1D2F3130232D35040506070812
:10043000090A0B0C0D0E0F101112131415161718B4
:10044000191A1B1C1D2F3130354C09025B000301AA
:1004500000A0FA09040000010301010009211101B3
:1004600000012240000705810308000A0904010079
:1004700002030000000921110100012222000705EA
:100480008203200001070503032000010904020084
:10049000010300000009211101000122BC00070531
:1004A000840320000A12011001000000086370019B
:1004B00000010001020001440370006C006100694A
:1004C000006E006F006C00640063006800650065EA
:1004D000007300650020004C00650074007300206C
:1004E00000530070006C006900740020005000721E
:1004F0000065006F006E006900630000001E03705D
:10050000006C00610069006E006F006C00640063A5
:1005100000680065006500730065000000040309C1
:10052000040011241FBECFEFDAE0DEBFCDBF04B65A
:1005300003FE27C080918F0290919002A0919102BA
:10054000B09192028730904BA740B04BD1F41092FB
:100550008F0210929002109291021092920214BE99
:1005600084B7877F84BF0FB6F894A8958091600008
:10057000886180936000109260000FBEE0E0F8E3B5
:10058000099522E0ACE6B1E001C01D92AF38B20798
:10059000E1F711E0A0E0B1E0E6E4F6E402C0059086
:1005A0000D92AC36B107D9F70E947A1C0C94AB229D
:1005B0000C940000E8EDF0E080818E7F8083109243
:1005C000E2001092DA001092E100A0EEB0E08C910F
:1005D00081608C9380818F77808319BCA7EDB0E018
:1005E0008C918E7F8C9380818F7E808310923C02D1
:1005F00008952091E4003091E50095E6A90120914D
:10060000EC00822F817020FF06C08091E80080FFFF
:1006100006C080E008952091E80022FD1AC0809174
:100620006A02882389F0853089F08091EB0085FD8E
:100630000FC02091E4003091E50042175307F9F212
:100640009150E1F684E0089582E0089583E00895F2
:1006500081E00895EF92FF920F931F93CF937C0157
:100660008B010E94F902C82F811117C08091E80008
:1006700085FD0BC08091E8008E778093E8000E9492
:10068000F902882399F3C82F08C0F70181917F01EF
:100690008093F1000150110949F78C2FCF911F91E0
:1006A0000F91FF90EF900895CF93FC0180916A0223
:1006B000843001F5C091E900CF702091EC00922FB9
:1006C000917020FD90E8C92B82E08093E900809131
:1006D000E80080FF0CC050E040E060E270E0CF0135
:1006E0000E942A038091E8008E778093E800CF7003
:1006F000C093E900CF9108958091620287FF13C0F3
:100700008091E80082FF06C08091E8008B7780939B
:10071000E80004C080916A028111F2CF08958091AF
:100720006A028823D9F38091E80080FFF8CF809196
:10073000E8008E77ECCF982F9093E900242F762F46
:1007400050E0891731F07091EC002091ED0050914C
:10075000F00021FD07C09F5F973071F78093E9009B
:1007600081E008953091EB003E7F3093EB003091B3
:10077000ED003D7F3093ED003091EB003160309320
:10078000EB007093EC002093ED005093F00020916B
:10079000EE0027FDE0CF80E00895CF92DF92EF9248
:1007A000FF920F931F93CF93DF93C8EDD0E0888122
:1007B0008F7E8883E7EDF0E080818160808384E034
:1007C00082BF81E080933C0288818E7F888302EE25
:1007D00010E0F80110821092DA0081EEC82ED12CC0
:1007E000F601108288818F7788838881806888836A
:1007F00088818F7D888319BC10926A0210926102F1
:100800001092600210925F0290EEE92EF12CF70137
:1008100080818B7F808388818160888342E060E073
:1008200080E00E949B03F60180818E7F8083F80127
:10083000808181608083808188608083F7018081EE
:100840008E7F8083888180618883DF91CF911F9123
:100850000F91FF90EF90DF90CF900895FC01809171
:1008600068029091690286179707A0F061157105DB
:1008700029F49091E8009E779093E80090E061154C
:10088000710551F4911108C08091E80082FF34C0D5
:1008900080E00895BC01F2CF80916A028823C1F103
:1008A0008530C1F18091E80083FD30C08091E8007F
:1008B00082FDEACF8091E80080FFE1CF8091F300D4
:1008C0002091F200382F6115710519F0283031059B
:1008D00058F091E02830310509F090E02091E800CF
:1008E0002E772093E800CBCF81918093F100615067
:1008F00071092F5F3F4FE7CF80916A02882341F053
:10090000853041F08091E80083FFBECF81E00895FB
:1009100082E0089583E0089580913E020895833037
:1009200011F128F4813049F0823091F0089585303A
:1009300081F120F18630C1F1089580910501681799
:1009400020F4861B809305010895109205010895F7
:1009500080910601681720F4861B80930601089594
:1009600010920601089580910301681720F4861BF8
:10097000809303010895109203010895809102016C
:10098000681720F4861B80930201089510920201DB
:10099000089580910101681720F4861B809301015E
:1009A000089510920101089580910001681720F4C4
:1009B000861B8093000108951092000108958330F2
:1009C00081F128F4813059F08230D1F008958530DA
:1009D00009F449C0B8F1863009F456C008958091F1
:1009E0000501482F460F5527551F4F3F510524F449
:1009F000680F6093050108958FEF809305010895B6
:100A000080910601482F460F5527551F4F3F51052E
:100A100024F4680F6093060108958FEF8093060118
:100A2000089580910301482F460F5527551F4F3FCA
:100A3000510524F4680F6093030108958FEF8093AC
:100A40000301089580910201482F460F5527551F35
:100A50004F3F510524F4680F6093020108958FEF12
:100A600080930201089580910101482F460F552778
:100A7000551F4F3F510524F4680F609301010895FD
:100A80008FEF80930101089580910001482F460F58
:100A90005527551F4F3F510524F4680F60930001FF
:100AA00008958FEF80930001089590911E02803F7A
:100AB00059F480911F0287FF0DC010921F029111FF
:100AC0000BC01092190208C0813F81F480911F026F
:100AD00018169CF3992381F08091200290912102B5
:100AE000892B09F064C0109216020895823F49F4E0
:100AF00097FFF0CF10921E0280911F028111ECCF60
:100B0000E0CF833F19F41916ACF3E4CF2091200213
:100B1000893F29F41216F4F610922002DBCF8A3FA7
:100B200019F427FFD7CFF8CF209121028B3F29F46A
:100B300027FFD0CF10922102CDCF8C3F19F412168F
:100B4000CCF3C8CF843F31F480911D028E7F809317
:100B50001D02C0CF853F21F480911D028D7FF7CF0C
:100B6000863F21F480911D028B7FF1CF873F21F4D6
:100B700080911D02877FEBCF883F21F480911D0279
:100B80008F7EE5CF8D3F31F4809103028E7F80937D
:100B90000302A0CF8E3F21F4809103028D7FF7CF17
:100BA0008F3F09F097CF809103028B7FF0CF08959C
:100BB0008091030280FF0CC06091010170E0759587
:100BC0006795759567956115710549F1862F0895AB
:100BD00081FF06C06091010170E075956795F3CFC4
:100BE0006091010182FD0BC0909116029923A1F042
:100BF0006091000180910101961738F0682F70E034
:100C00006038710500F38FE70895899FC0011124B2
:100C100070E00E943422F4CF61E070E0D7CF81E031
:100C200008958091030280FF12C06091030185E066
:100C3000689FB00111247595679575956795603823
:100C40007105A8F561157105A1F1862F089581FF41
:100C500009C06091030185E0689FB001112475957A
:100C60006795EDCF6091030182FD0AC08091190262
:100C70008823D1F09091020160910301891728F037
:100C800085E0689FB0011124DACF869FB00111245E
:100C900085E0869F9001879F300D1124692F70E0B9
:100CA000C9010E943422CBCF65E070E0CECF8FE740
:100CB000089581E00895803F31F40E9411068195E6
:100CC00080931F020895813F19F40E941106F8CF06
:100CD000823F31F40E941106819580931E0208958F
:100CE000833F19F40E941106F8CF893F29F40E942E
:100CF000D8058093200208958A3F21F40E94D805E8
:100D00008195F7CF8B3F31F40E94D8058195809370
:100D1000210208958C3F19F40E94D805F8CF843F32
:100D200031F480911D02816080931D020895853FFA
:100D300021F480911D028260F7CF863F21F48091DB
:100D40001D028460F1CF873F21F480911D028860ED
:100D5000EBCF883F21F480911D028061E5CF8D3F6C
:100D600031F48091030281608093030208958E3FE5
:100D700021F4809103028260F7CF8F3FB9F7809111
:100D800003028460F1CF87E797E79093010880938F
:100D9000000888E19AE00FB6F894A8958093600067
:100DA0000FBE90936000FFCF9C014FB7F8948091E5
:100DB000380290913902A0913A02B0913B024FBFA4
:100DC000821B930B0895209111012223C9F02091D9
:100DD000110227FF15C0E62FE695E695E695EE3160
:100DE000D8F4E80FF92FF11D677021E030E001C061
:100DF000220F6A95EAF7209582812823228308959D
:100E0000FC01329608962191621303C0DF0111970D
:100E10001C92E817F907B9F70895209111012223D0
:100E2000C1F02091110227FF14C0E62FE695E69548
:100E3000E695EE31F8F4E80FF92FF11D677021E027
:100E400030E001C0220F6A95EAF78281822B82830B
:100E50000895FC0132962FEF30E04191641751F074
:100E60002F3F19F4411101C0232F3F5F3630A9F7FE
:100E70002F3F09F40895820F911D27FD9A95FC01DB
:100E8000628308958091FE0181111092FE01089500
:100E90008091FD019091FC01892B9091FB01892BA0
:100EA00080936C019091FE019923A1F0892B80938E
:100EB0006C0180911101882341F18091110287FF1B
:100EC00024C08EE1EEE6F1E090E0815000F5911152
:100ED0000E944207E0911302F09114023097E1F072
:100EE00080911101882359F08091110287FF07C07A
:100EF00080916C0180936D0185E080936C0102808C
:100F0000F381E02D8CE691E0099486E0DBCF21911E
:100F10002223D9F29F5FD9CF0895E92FEE0FE90F71
:100F2000EE0F8E0F982F977086958695869525E003
:100F3000829FF0011124EE52FE4F50E040E080E02D
:100F4000219130E0092E02C0369527950A94E2F7E8
:100F500021703327042E01C0220F0A94EAF7822B56
:100F60004F5F5F4F4530510559F70895E92FEE0F58
:100F7000E90FEE0F8E0F982F977041E001C0440FDC
:100F80009A95EAF786958695869595E0899FF00172
:100F90001124EE52FE4F30E020E070E05191DF016D
:100FA0001197CB01022E02C0969587950A94E2F71D
:100FB000817081958527842385278C932F5F3F4FF0
:100FC0002530310559F708958091D1019091A00104
:100FD000981301C008958F5F8770FACF882341F07E
:100FE00080959091FD0189238093FD010C94480721
:100FF0000895882339F09091FD01982B9093FD017D
:101000000C94480708952091950130919601281776
:10101000390771F09093960180939501E091130246
:10102000F0911402309721F00084F185E02D0994AD
:10103000089520919301309194012817390771F098
:101040009093940180939301E0911302F091140224
:10105000309721F00680F781E02D09940895E09102
:101060001302F0911402309721F00190F081E02DED
:10107000099480E00895F894E82FE295EF70F0E08D
:1010800031A1282F2F7081E090E001C0880F2A95B0
:10109000EAF7982F9095932391A392A1892B82A38D
:1010A000789408959091110292FF06C0282F28711C
:1010B0002830F9F4877F846093FF06C0282F2871B9
:1010C0002831F1F4877E84612091120220FF06C04E
:1010D000382F38713830D9F4877F816021FF06C0FE
:1010E000282F28712831D1F4877E816194FD877E75
:1010F0000895282F24712430F9F68B7F8860DCCF87
:10110000282F2471243101F78B7E8861DDCF382FA1
:101110003171313019F78E7F8860E0CF282F21712F
:10112000213121F78E7E8861E1CFCF93DF9300D00C
:101130000F92CDB7DEB790916A02943011F5898392
:101140007B836A839093E9008FEF9091E800815050
:1011500095FD06C095ED9A95F1F700008111F5CF48
:101160008091E80085FF0DC050E040E063E070E052
:10117000CE0101960E942A038091E8008E77809329
:10118000E8000F900F900F90DF91CF910895BC0170
:1011900084E00C949508BC0183E00C9495089C01B4
:1011A00084E08093E9009FEF8091E800915085FDF5
:1011B00006C085ED8A95F1F700009111F5CF809179
:1011C000E80085FF0CC050E040E066E070E0C90137
:1011D0000E942A038091E8008E778093E8000895AA
:1011E000CF93DF93EC01809111018823B1F18091BD
:1011F000110287FF32C060E284E08093E9008FEF44
:101200009091E800815095FD06C095ED9A95F1F713
:1012100000008111F5CF8091E80085FF1BC080910F
:10122000110170E050E040E0811104C050E040E066
:1012300068E070E0CE010E942A038091E8008E777A
:101240008093E80080E2FE01AFE3B2E001900D92EE
:101250008A95E1F7DF91CF91089568E081E0CDCFE5
:1012600080919001811114C088EC9091E30097FD6A
:1012700016C0EFE3FCE93197F1F700C000008150A0
:10128000A1F70E94DA0210926A0282E08093900134
:1012900081E090919001913009F080E0089581E023
:1012A000F5CFCF9384E090E00E946922C82F81E2BD
:1012B00090E00E946922982F8C2FCF9108950F9370
:1012C0001F93CF93DF93C42FD0E0CC0FDD1F2CE012
:1012D000629FC00DD11D112438E7839FC00DD11D21
:1012E0001124CE0186960E946922082F10E0102F4B
:1012F0000027CE0187960E9469229801282BC901F8
:10130000DF91CF911F910F910895462F843038F4CB
:101310007A3028F4663018F4672F0C945F0990E057
:1013200080E00895CF93DF930E948509EC01823815
:101330009105A9F1D8F58133910509F496C048F5D6
:101340008932910509F48AC08A9709F495C0C115BC
:1013500021E5D20708F0BCC0C11530E5D30708F07D
:1013600014C1C83ED10508F09CC0C03ED10560F54F
:10137000C83AD10508F087C0C53AD10508F0FDC0CC
:10138000C130D10509F12097F9F0C430D105E0F45E
:1013900040C08533910509F45AC0C997C1F68091C0
:1013A0001102837089F0C0EED0E00EC0833E91053B
:1013B00099F170F4803E910501F1823E910539F674
:1013C0008091110282FD21C0CE01DF91CF9108955D
:1013D000863E910561F1873E910571F1843E91054C
:1013E00009F0B5CF8091120281FFEECF80911102FA
:1013F000C7EED0E084FD0DC0E7CF8091110280FDE3
:1014000012C19091120290FFDFCFC3EED0E084FFB3
:10141000DBCFD0E0C0E0D8CF8091110282FD06C1C1
:101420009091120290FDBFCF84FFCECFF2CF80917A
:10143000110283FDDDCFC8CF8091110283FDF9C079
:101440009091120291FFF0CFC4EED0E0BDCF809119
:10145000110285FFB9CFC9E2D0E0B6CF8091110269
:1014600085FFB2CFC5E3D0E0AFCF8091110286FFF8
:10147000ABCFCAE2D0E0A8CF8091110286FFA4CF03
:10148000C1E3D0E0A1CFCF3BD10518F6C85AD0E0D8
:10149000CC0FDD1FC15EDE4F0990D881C02DD46412
:1014A00093CFC11540E2D40758F4C11581E0D807A5
:1014B00008F08ACFC03FD10508F4ABCFD06584CF08
:1014C000C11590E4D90708F4A4CFDF70D06A7CCFAF
:1014D000C11525E5D20700F5C11534E5D30708F09D
:1014E0008AC0C11543E5D40708F071C0C11582E573
:1014F000D80708F467C0CE018370992721E030E057
:1015000002C0220F331F8A95E2F7C695C69580E286
:10151000C89FE001112452C0C11599E5D907A8F46C
:10152000C11528E5D20708F06BC0C11536E5D30711
:1015300008F06FCF8C2F0E945208C82FD0E0DC2F0C
:10154000CC27CC27DF71D0623FCFC1154AE5D40745
:1015500008F45BC0CE0190568115904208F059CF37
:101560008D2F8F710E94520890E0982F882788272E
:101570009F719C012C2BE901E6CFC55AD0E0C45ED7
:10158000DE4FC881D0E0D0641FCFCE01E4E0969555
:101590008795EA95E1F783702C2F26952695237081
:1015A00040E2249F90011124382B8C2F8370C1E0DE
:1015B000D0E002C0CC0FDD1F8A95E2F7C22BD32BFF
:1015C000DC6802CFDC2FCC27C16FD06AFDCECE0104
:1015D0008370992721E030E002C0220F331F8A95E3
:1015E000E2F7C695C69590E2C99FE0011124C22B8F
:1015F000D32BDA68E9CEDC2FCC27C46FD06AE4CED7
:10160000DC2FCC27C06FD06ADFCE8C2F8F700E946A
:10161000520834E0D695C7953A95E1F7CF709C2FE4
:10162000EC01D069D1CEC9E3D0E0CECEC2EED0E09D
:10163000CBCEC6EED0E0C8CEBF92CF92DF92EF9273
:10164000FF920F931F93CF93DF938C01C0906B0297
:10165000D0906C02E0906D02F0906E028091FF01DC
:1016600090910002A0910102B0910202C82AD92AE9
:10167000EA2AFB2ACFE1D0E0BC2ED701C6010C2E0E
:1016800004C0B695A795979587950A94D2F780FDE3
:101690000EC0219788F7B12C8B2DDF91CF911F9130
:1016A0000F91FF90EF90DF90CF90BF900895B80119
:1016B0008C2F0E949209019761F3EECFCF93DF93B5
:1016C000EC010E941C0BBE01DF91CF910C9492099A
:1016D0000E945E0B292F2F7092959F7092509E3022
:1016E00078F4E92FF0E0E355FD4D0C944822803F5B
:1016F00019F020F4883E20F481E00895843FE1F35E
:1017000080E00895883EC0F3813FD1F7F5CF822F66
:1017100086958695869508956F927F928F929F9277
:10172000AF92BF92CF92DF92EF92FF920F931F93EF
:10173000CF93DF938AECC82E81E0D82E9AEAE92E67
:10174000F12CE701C857D10936011BC0F50185907E
:101750009490692DC8010E947722682DC8010196D6
:101760000E94772282E0A80EB11C0E5F1F4FC017A7
:10177000D10761F78CE0680E711C2C96CE15DF0541
:1017800029F08E010C5011095301E0CF7E0188E74A
:10179000E80EF11C88E7C80ED11C8AE8E81682E042
:1017A000F80679F6DF91CF911F910F91FF90EF909E
:1017B000DF90CF90BF90AF909F908F907F906F9071
:1017C0000895CF93DF93C6E0D2E060E0CE010E949F
:1017D00077222196C11584E0D807B9F7DF91CF9120
:1017E0000895CF93C82F6FEF811161E282E290E0FC
:1017F0000E9477226FEFC11161E083E290E00E94C6
:1018000077226FEFC11160E284E290E0CF910C94F7
:1018100077226CEE7EEF90E080E00E94952260E0FF
:1018200082E090E00E94772260E083E090E00E94F6
:1018300077221092FF011092000210920102109282
:10184000020260E084E090E00E94772260E081E2A2
:1018500090E00E94772260E085E090E00E9477228D
:1018600060E086E090E00E9477226FEF87E090E0F2
:101870000E94772240E050E0BA0188E090E00E94A8
:10188000892260E08DE090E00E94772240E050E005
:10189000BA0188E190E00E94892260E087E190E04F
:1018A0000E94772240E050E0BA018CE190E00E9473
:1018B000892260E080E290E00E94772240E050E0E0
:1018C000BA0188E190E00E94892240E050E0BA012C
:1018D0008FE090E00E94892240E050E0BA0183E16D
:1018E00090E00C94892278941F921FB61F921124C5
:1018F0008F939F93AF93BF93809138029091390259
:10190000A0913A02B0913B020196A11DB11D8093B6
:10191000380290933902A0933A02B0933B02BF91F0
:10192000AF919F918F911F901FBE1F9018952FB759
:10193000F8948091380290913902A0913A02B091C6
:101940003B022FBF08950E94970C9C0190911E02AC
:1019500080911F02982B21F030931B0220931A02D2
:101960009091200280912102982B21F0309318024F
:1019700020931702E0911302F0911402309749F07E
:1019800082E080931C020480F581E02D8CE192E0DE
:10199000099408951092FC011092FB010E944807DF
:1019A00086E0ECE1F2E0DF011D928A95E9F7109202
:1019B000190210921602109203020E94A30C90E0EA
:1019C00080E00E94190890E080E00C940308609386
:1019D0006B0270936C0280936D0290936E020C9474
:1019E000CA0C0F931F9360916B0270916C028091EF
:1019F0006D0290916E028B019C01067011272227C7
:101A00003327063011052105310529F468601F913F
:101A10000F910C94E70C677FFACF0F931F9341E06F
:101A200050E060E070E004C0440F551F661F771F50
:101A30008A95D2F7CB01BA01609570958095909503
:101A400000916B0210916C0220916D0230916E0238
:101A500060237123822393231F910F910C94E70C31
:101A60009091FA01809589238093FA01282F27709D
:101A700071F4282F082E000C330B9217130639F03F
:101A80008595859585950E940D0D1092FA01089512
:101A90000F931F9341E050E060E070E004C0440FFA
:101AA000551F661F771F8A95D2F780916B02909120
:101AB0006C02A0916D02B0916E028A019B01082B0D
:101AC000192B2A2B3B2BC901B8011F910F910C94A4
:101AD000E70C6093FF0170930002809301029093E2
:101AE00002020C94CA0C1092FD0180911101EEE6E5
:101AF000F1E0882359F08091110287FF07C08EE141
:101B0000DF011D928A95E9F70C94CA0C86E0F8CFA4
:101B10001F93CF93DF93CDB7DEB7AA970FB6F89494
:101B2000DEBF0FBECDBF82E692E02091F100DC0166
:101B30002D93CD01B2E08A369B07B9F780916302FD
:101B4000833009F471C0B8F4813009F448C08230A0
:101B500009F4B2C08091E80083FF88C280916202DC
:101B6000909163029A3008F081C2E92FF0E0E554C9
:101B7000FD4D0C9448228A3009F48DC08B3009F455
:101B800070C0893039F780916202813219F78091F3
:101B9000660290916702009711F00297D9F6809142
:101BA000E800877F8093E8008091E80082FF37C0DB
:101BB0009091F3008091F200029729F48091F10056
:101BC0008B7F813021F48091F10080933E028091DF
:101BD000E8008B778093E8000E947C03BBCF809164
:101BE0006202813A09F0B6CF8091E800877F809346
:101BF000E8008091660290916702892B61F460E2AF
:101C00008FE392E070E00E942E048091E8008B77D1
:101C10008093E8009FCF60E090E080E0F3CF809178
:101C20006A028111C1CF96CF80916202813A09F098
:101C300091CF8091660290916702892B09F08ACF3B
:101C40008091E800877F8093E8008091E80080FF22
:101C5000FCCF809111018093F1008091E8008E7794
:101C6000B9CF80916202813209F074CF809166020F
:101C700090916702892B09F06DCF8091E800877FF2
:101C80008093E8000E947C0380916402809311019C
:101C90000E94730D5FCF80916202813209F05ACFAA
:101CA0008091E800877F8093E8000E947C03809108
:101CB000650280933D024ECF80916202813A09F025
:101CC00049CF8091E800877F8093E8008091E80009
:101CD00080FFFCCF80913D02BECF803899F08238E2
:101CE00009F0C4C1809166028F70873008F0BEC1D0
:101CF0008093E9008091EB0085FB882780F91092A2
:101D0000E90006C080915F029091600291118260AB
:101D10009091E800977F9093E8008093F1001092F3
:101D2000F1008091E8008E779DC1882309F48BC172
:101D3000823009F09BC18091640281118EC1809133
:101D400066028F702FEF280F263008F08FC1809326
:101D5000E9002091EB0020FF80C1933031F48091A5
:101D6000EB0080628093EB0078C19091EB00906172
:101D70009093EB0021E030E001C0220F8A95EAF752
:101D80002093EA001092EA008091EB008860EACF8D
:101D900081116CC1109164021F778091E3008078FB
:101DA000812B8093E3008091E800877F8093E80097
:101DB0000E947C038091E80080FFFCCF8091E300CB
:101DC00080688093E30082E0111183E080936A02CF
:101DD0004DC18058823008F049C120916402309191
:101DE00065022C3DE3E03E07A1F583E08A838AE2A9
:101DF00089834FB7F894DE01139620E03EE051E26C
:101E0000E32FF0E050935700E49120FF03C0E295E8
:101E1000EF703F5FEF708E2F90E0EA30C0F0C79612
:101E20008D939D932F5F243159F74FBF8091E80028
:101E3000877F8093E8006AE270E0CE0101960E94FD
:101E40002E048091E8008B778093E8000FC1C09644
:101E5000E7CF8091660290916702432F5527433068
:101E6000510509F44AC078F54130510509F47AC0AA
:101E70008BE590E0EAE4F4E04230510509F0F6C069
:101E80002091E800277F2093E8002091680230919C
:101E900069028217930708F49C0140E0211531057F
:101EA00009F065C0411163C08091E80082FDC9CF8F
:101EB00080916A02882329F2853019F28091E80026
:101EC00083FFF2CFBECF4132510509F43CC042320C
:101ED000510509F0CBC08330910508F0C7C0FC0163
:101EE000EE0FFF1FE05AFE4F0190F081E02D835A64
:101EF0009E4FDC018C9190E01AC0332721303105D0
:101F0000D1F02115310561F02230310509F0AEC064
:101F1000E7EBF4E0E4918E2F90E0E7EBF4E007C00C
:101F2000EDE1F5E0E4918E2F90E0EDE1F5E0009732
:101F300009F49CC0A5CFEDEFF4E0E4918E2F90E082
:101F4000EDEFF4E0F4CF8330910508F08FC0880FF7
:101F5000991FFC01EA59FE4F0190F081E02D89E0C4
:101F600090E08ECF82E190E0E5EAF4E089CF8091C5
:101F70006A02882309F465CF853009F462CF809125
:101F8000E80083FD5ECF8091E80082FD8DCF8091D7
:101F9000E80080FF83CF9091F3008091F20021153B
:101FA000310519F08830910550F041E0089709F0AB
:101FB00040E08091E8008E778093E8006FCF4491F5
:101FC0004093F1003196215031090196E8CF8038D5
:101FD00009F04CC08091E800877F8093E8008091F1
:101FE00061028093F1009DCE811140C01091640286
:101FF0001230E0F58091E800877F8093E80010932D
:1020000061020E947C03112311F084E005C08091DD
:10201000E30087FDFACF81E080936A0242E061EC41
:1020200081E00E949B0342E261EC84E00E949B03FA
:1020300042E261EC82E00E949B0342E260EC83E0BA
:102040000E949B0313C080916402813079F481E087
:10205000933009F080E0809360021092E900809153
:10206000E800877F8093E8000E947C038091E8006D
:1020700083FF0AC08091E800877F8093E800809109
:10208000EB0080628093EB00AA960FB6F894DEBF57
:102090000FBECDBFDF91CF911F9108951F920F9278
:1020A0000FB60F9211242F933F934F935F936F932B
:1020B0007F938F939F93AF93BF93CF93DF93EF93D0
:1020C000FF93D091E900DF708091EC00C82FC170C0
:1020D00080FDC0E81092E9008091F000877F809336
:1020E000F00078940E94880D1092E9008091F00031
:1020F00088608093F000CD2BCF70C093E900FF91F2
:10210000EF91DF91CF91BF91AF919F918F917F918F
:102110006F915F914F913F912F910F900FBE0F9054
:102120001F9018951F920F920FB60F9211242F93A4
:102130003F934F935F936F937F938F939F93AF934F
:10214000BF93EF93FF938091E10082FF09C08091DC
:10215000E20082FF05C08091E1008B7F8093E10067
:102160008091DA0080FF24C08091D80080FF20C0D9
:102170008091DA008E7F8093DA008091D90080FF11
:102180009FC080E189BD82E189BD09B400FEFDCF19
:1021900081E080936A0280913C02811109C00E9413
:1021A000DA020E94CD038091E20084608093E20015
:1021B0008091E10080FF17C08091E20080FF13C092
:1021C0008091E2008E7F8093E2008091E200806146
:1021D0008093E2008091D80080628093D80019BC7F
:1021E00085E080936A028091E10084FF2DC0809198
:1021F000E20084FF29C080E189BD82E189BD89B503
:10220000982F917080FFFBCF8091D8008F7D8093B5
:10221000D8008091E1008F7E8093E1008091E20000
:102220008F7E8093E2008091E20081608093E200E3
:1022300080916102882309F449C084E080936A0296
:102240000E94730D0E942F088091E10083FF27C038
:102250008091E20083FF23C08091E100877F80931B
:10226000E10082E080936A02109261028091E100B5
:102270008E7F8093E1008091E2008E7F8093E20068
:102280008091E20080618093E20042E060E080E0C3
:102290000E949B038091F00088608093F000FF9182
:1022A000EF91BF91AF919F918F917F916F915F91CE
:1022B0004F913F912F910F900FBE0F901F90189547
:1022C00019BC10926A0210923C0272CF8091E30016
:1022D00087FD93E090936A02B3CF0F931F9341E081
:1022E00050E060E070E08A019B0104C0000F111F04
:1022F000221F331F8A95D2F7C901B8010E94690DC8
:102300001F910F910C94730DEBEFE80FEF3308F072
:1023100064C0F0E0EB53FD4D0C9448220E94090C80
:1023200081E0089580912302807F8093230281E0E1
:102330008093040208950E94730D2FEF84E39CE0C4
:10234000215080409040E1F700C000000E94C30689
:1023500090912302892F8E7F90FF816080932302CA
:1023600080FDDECF817F80932302DACF909123021C
:10237000892F8D7F91FF82608093230281FFD0CFD0
:10238000809123028160EFCF90912302892F8B7F70
:1023900092FF84608093230282FDF2CFC1CF90919F
:1023A0002302892F877F93FF88608093230283FD18
:1023B000E7CFB6CF0E94730D90911102892F97FB42
:1023C00087F9805880931102ABCF80E00E946D1195
:1023D000A7CF8953FBCF8D51F9CF80E00895882393
:1023E000B1F19CEF980F913A38F4682F8CE691E0A8
:1023F0000E94E3060C94480790E2980F983088F406
:10240000877021E030E0A90102C0440F551F8A9572
:10241000E2F7CA0180959091FD0189238093FD0127
:10242000E9CF9BE5980F933020F490E080E00C9486
:10243000190898E5980F973120F490E080E00C940B
:102440000308803F20F00E9455050C94A30C0895CA
:10245000CF93C82F882309F465C08CEF8C0F813A85
:1024600008F0B7C0809104028130C9F1882369F176
:10247000823009F44FC01092040280911101882328
:1024800009F494C08091110287FF90C0EC2FE6956B
:10249000E695E695F0E0E459FE4F828190E04C2FFE
:1024A000477021E030E002C0220F331F4A95E2F767
:1024B00082239323892B09F484C06C2F8CE691E04E
:1024C0000E94E3060E9448077CC08091FD01823291
:1024D000A1F68C2F0E948411811124C0CECF80914F
:1024E000FD018232B1F3C43171F038F4CB3049F0E0
:1024F000C03161F080E08170EFCFC93221F0C83384
:10250000C9F781E0F8CF10920402F4CF82E0809303
:102510000402F7CFC93221F190F4C43109F120F45B
:10252000C73089F1CF910895CE51C630D8F7EC2F3E
:10253000F0E0EE5EFE4F808180939901F3CFCE34C0
:1025400001F140F46AE0CB3469F780919901CF91B1
:102550000C94DF04C13579F061E0C235B1F3E2CF0C
:1025600080919901882319F010929901DBCF81E0C5
:1025700080930402D7CF61E080919901CF910C94B0
:102580008F046AE0F9CF8EE18093050182E38093A6
:1025900006018AE08093030184E18093020188E0D0
:1025A0008093010188E280930001BCCFEEE6F1E068
:1025B00084E791E02191C21709F47FCF8E179F071E
:1025C000C9F76C2F8CE691E00E940D07CF910C9417
:1025D000480780E28C0F883068F4C77021E030E053
:1025E00001C0220FCA95EAF78091FD01822B8093EA
:1025F000FD01ECCFEBE5EC0FE33040F4F0E0E45EFE
:10260000FE4F808190E0CF910C941908E8E5EC0F23
:10261000E73150F4F0E0EE0FFF1FE15EFE4F8081E6
:102620009181CF910C940308C03F08F47BCF8C2F8D
:102630000E945B06CF910C94A30CCF93C82F0E94ED
:102640002812C93349F42FEF87EE93E021508040E0
:102650009040E1F700C000008C2FCF910C94EF1157
:102660000F931F93CF93DF93C42FD22FFC0182814E
:102670008823A1F0409397010E94970C90939201B8
:1026800080939101C77081E001C0880FCA95EAF775
:10269000DF91CF911F910F910C94F9071091970141
:1026A000141335C080919101909192010E94D4063B
:1026B000883C910560F5C0E2CD0F1D17B9F080E2AE
:1026C000810F883040F4177081E001C0880F1A959F
:1026D000EAF70E94EE07C83048F481E09D2F97701A
:1026E00001C0880F9A95EAF70E94F907802F0E948F
:1026F0001D13C83098F4D77081E001C0880FDA95B7
:10270000EAF7DF91CF911F910F910C94EE07C770FC
:1027100081E001C0880FCA95EAF7F3CFDF91CF912E
:102720001F910F9108954F925F926F927F928F92B7
:102730009F92AF92BF92CF92DF92EF92FF920F9350
:102740001F93CF93DF9300D000D00F92CDB7DEB7A9
:102750007C01FC0183819481892B31F080819181FE
:1027600089238F3F09F030C50F900F900F900F9085
:102770000F90DF91CF911F910F91FF90EF90DF901D
:10278000CF90BF90AF909F908F907F906F905F9011
:102790004F9008950E941C0B182F682F89819A81F1
:1027A0000E94B60769817A81812F0E9485098C0178
:1027B000F7018281882309F4FCC4980122513F4526
:1027C0002031310508F0CCC48FEF93E00E946922DC
:1027D000025156E0A52E52E0B52E882379F1809162
:1027E000FA01877009F4C0CFF7018281882309F4C8
:1027F000BBCF82E00F900F900F900F900F90DF9162
:10280000CF911F910F91FF90EF90DF90CF90BF90ED
:10281000AF909F908F907F906F905F904F900C94AF
:10282000300DA114F4E0BF06D1F2C5010E94692267
:10283000811101C001502FEFA21AB20A0111F1CF8C
:102840001C821B82662463944AE0542E85010F5F2C
:102850001F4FC5010E94692289831A82882309F4C7
:10286000BECF9FEF980F933008F58A83698232E0DC
:10287000A30EB11CC8010E9469228B83882309F42E
:10288000AECF8E010F5F1F4FF80120812223F1F29E
:10289000213009F043C091818281913049F40E5F6B
:1028A0001F4F0E941D130F5F1F4FEECF5801E9CF3E
:1028B000923029F40E5F1F4F0E942812F4CF9330FC
:1028C00029F40E5F1F4F0E94EF11EDCF943019F0E5
:1028D0000F5F1F4FE8CF0E5F1F4F30E020E0B801C1
:1028E0006F5F7F4FF80141818053990B8A309105CA
:1028F00050F021503109B8F28FE99FE00197F1F7CC
:1029000000C00000F6CF529EF001539EF00D11243E
:102910009C012E0F3F1F842F8B01E1CFE22FF0E0AF
:10292000E653FC4F7490822F86958695869590E0AD
:10293000FC01E654FC4F84902770912C022E02C0BB
:10294000959487940A94E2F7E1E08E229924FC01A1
:10295000E655FC4FC490D12C02C0D594C7942A955B
:10296000E2F7F1E0CF22DD248114910419F081EE29
:102970000E942812C114D10419F086EE0E94281278
:10298000872D0E941D13CD2819F086EE0E94EF11AD
:10299000892809F488CF81EE96CF81E00E94480D06
:1029A0000E94F10C1CCF81E00E940D0DF9CF82E056
:1029B000F5CF063F2CE5120709F465C008F45DC0A9
:1029C000073F9CE5190709F464C0882309F40DC486
:1029D000109297010230ECE51E0708F442C106315F
:1029E000FCE51F0738F098012B5F3C452930310585
:1029F00008F037C10E94510990931202809311028E
:102A000000312CE5120709F4FBC008F085C008303E
:102A10008CE5180709F4E6C008F057C00430ECE56F
:102A20001E0709F4D3C008F040C002302CE512079D
:102A300009F4C6C080911102826003301C4509F47C
:102A4000C2C0609111021091120284E090E00E94D5
:102A50007722612F81E290E00E9477220E94730D1D
:102A6000BECE07E225EE45EE69ED7CE59EC306E2AB
:102A700021EE40EE64EF7CE598C307E225EE44EEDC
:102A800065EF7CE592C306E221EE42EE66EF7CE55F
:102A90008CC307E225EE46EE67EF7CE586C308E2CD
:102AA00021E045EE6AED7CE580C306308CE5180731
:102AB00009F494C080911102886007301C4508F425
:102AC00082C08091110280627EC0809111028D7F50
:102AD0000C30ECE51E0709F476C070F48091110209
:102AE0008C600A302CE5120709F46DC008F47EC032
:102AF000809111028E7F67C00E308CE5180709F4B3
:102B00007BC0809111028B7F0F301C4508F45BC0A5
:102B1000809111028F7E57C00C3FECE51E0709F42F
:102B200059C030F503312CE5120709F471C078F46F
:102B300001318CE5180709F467C002311C4509F022
:102B400080CF0E94730D809111028F773CC00531B8
:102B5000ECE51E0709F464C008F478C08091120205
:102B600081600B3F1C4509F06CCF8093120269CF46
:102B700001153DE5130709F44FC088F48091120256
:102B80008D7F0E3F9CE5190781F3809112028E7FA5
:102B90000F3F1C4550F3809112028360E6CF023054
:102BA000FDE51F0709F45BC008F446C060E0033090
:102BB0001D4509F046CF8EE090E00E94772241CF7C
:102BC000809111028160809311023BCF80911102AC
:102BD0008460F9CF809112028260C7CF8091110288
:102BE0008061F1CF809111028064EDCF0E94730D5E
:102BF000809111028068E7CF80911102877FE3CF37
:102C0000809111028F7DDFCF809111028F7BDBCF0E
:102C100080911102837FD7CF809112028C7FA5CF44
:102C20008091110282FB992790F921E0922790FB75
:102C300082F990FB83F9C7CF80911202982F90956B
:102C400091708E7F892B90FB81F98FCF0E94730D3D
:102C500090911102892F97FB87F98058B4CF61E0DA
:102C6000AACF06319CE5190709F0CCC28091FD017D
:102C70008A7A91E009F490E09093980169E28111D9
:102C800065E38CE691E00E940D070E944807A7CDFE
:102C90000E94730DEFEFF4E32CE0E150F040204090
:102CA000E1F700C000000E94C3060E94090C97CD06
:102CB000C8010E948D07D82EBCC2212F2F70A22ED2
:102CC000107F19F0A29490EFA922DD20C9F0AA206C
:102CD00069F080E2800F883010F081100BC0809185
:102CE000FD01A82AA092FD010E944807802F0E94A2
:102CF000281218C08091FC01A82AA092FC01F4CFF0
:102D0000802F0E94EF11AA2069F0A094005E083085
:102D100010F081103BC08091FD01A822A092FD011E
:102D20000E944807EB2DE850FF0B349710F40E94E7
:102D30002F08CC2009F418CD8091FA0180FD14CD24
:102D4000F70112828595859585950E94480DC701EA
:102D50000E9493138091FA018595859585950F9032
:102D60000F900F900F900F90DF91CF911F910F91C7
:102D7000FF90EF90DF90CF90BF90AF909F908F909B
:102D80007F906F905F904F900C940D0D8091FC019F
:102D9000A822A092FC01C4CF312F3F70932E107F48
:102DA000103219F0929480EF9822882071F081E01F
:102DB000881661F1DD20B9F1AA2071F1F701858152
:102DC00080FF94CF8F70858327C0DD2091F0909194
:102DD000FE01892F8929A11003C00E94F907A2CF03
:102DE000E1E0AE12FACF981709F49CCF8093FE0170
:102DF00099CFA11006C00E944207892D0E94EE07BC
:102E000091CFF1E0AF1609F48DCFF5CFDD2031F091
:102E100025E02A1508F486CF892DDFCF34E03A1556
:102E200008F480CFEACFAA2041F3F9E38F1291C1D1
:102E30002FEF37EE83E0215030408040E1F700C0B3
:102E4000000087C1812F86958695837061F081305F
:102E500009F068CFC8019370D11002C090E080E003
:102E60000E9403085FCFC8019370D11002C090E0A8
:102E700080E00E94190856CF802FDD2029F00E94A3
:102E80005B060E94A30C4ECF0E945505FACF812FFE
:102E9000837009F066C0D11045CF802F829586954A
:102EA0008770880F880F602F6F70462E512C712C01
:102EB000612C082E04C0440C551C661C771C0A9417
:102EC000D2F740E050E0BA0104FF0FC04FE050E0FD
:102ED00060E070E004C0440F551F661F771F8A959D
:102EE000D2F74095509560957095812F869586957F
:102EF0008370823019F1D8F40091FF011091000223
:102F00002091010230910202813069F04429552953
:102F100066297729CB01BA01602371238223932389
:102F20000E94690DFFCE402A512A622A732ACB01E2
:102F3000BA016429752986299729F2CF4429552990
:102F4000662977290091FF0110910002209101026A
:102F500030910202CB01BA016027712782279327A3
:102F6000DFCF8695DD2011F0812F8170882309F451
:102F7000D9CE802F829586958770880F880F602F15
:102F80006F70462E512C712C612C082E04C0440CFD
:102F9000551C661C771C0A94D2F740E050E0BA0139
:102FA00004FF0FC04FE050E060E070E004C0440F49
:102FB000551F661F771F8A95D2F7409550956095EB
:102FC0007095812F869586958370823019F1D8F49B
:102FD00000916B0210916C0220916D0230916E0293
:102FE000813069F04429552966297729CB01BA0136
:102FF00060237123822393230E94E70C93CE402AFF
:10300000512A622A732ACB01BA01642975298629BB
:103010009729F2CF442955296629772900916B0217
:1030200010916C0220916D0230916E02CB01BA01B9
:103030006027712782279327DFCF1F70DD2029F0BB
:10304000812F0E94480D802FC8CE802F0E94EE074E
:10305000812F0E940D0D66CE802F92EF891609F404
:1030600050C0981578F0E0EF8E1619F1F1EF8F1639
:1030700009F43FC0DD2009F467C0A11037CE812FCD
:103080008F713CC023EF821609F440C034EF8312E5
:10309000F1CFDD2009F44DC01F71812F0E94480D32
:1030A000E8E01E9FC001112483608093FA01812F04
:1030B00025C0DD20C9F084E08A1508F433CE1F71E5
:1030C00061E070E080E090E004C0660F771F881F29
:1030D000991F1A95D2F700916B0210916C02209102
:1030E0006D0230916E02A4CF95E09A1508F41ACEC5
:1030F000E6CF812F8F71DD2009F4ABCF0E94480D00
:1031000011CE812F8F71DD20C9F3A3CF60E070E075
:10311000CB01DD2009F470CF1F7161E070E080E029
:1031200090E004C0660F771F881F991F1A95D2F789
:1031300063CF81E00E94300DF1E0FA1508F0F2CD86
:1031400082E00E94300DEECDAA2039F0893309F4D7
:103150006FCE802F0E94EF11E5CD812F8F7179CF37
:103160000031FFE51F0709F418CC01312FE51207E4
:1031700009F41DCC043F2CE5120709F478CC08F0C3
:1031800018CC093D9CE5190709F46BCC0A3DECE528
:103190001E0709F484CC083DFCE51F0709F015CC97
:1031A00006E221EE41EE68ED7CE5C7010E94301396
:1031B00016CB00313FE5130709F4F5CB01319FE54C
:1031C0001907C1F682E0F0CB85E0DE01119601908F
:1031D0000D928A95E1F7F701228189819A81211167
:1031E000D9CA0E948D07182FDDCA06311C4599F4F3
:1031F0008091980169E2811165E38CE691E00E947B
:10320000E30643CD01152CE5120709F441CD0F3D2E
:103210001C4509F44ACDF70100811181882309F486
:1032200047CDC8010E941C0BD82E682FC8010E94F0
:10323000B607B8018D2D0E9492098C01882EF701E6
:10324000A580A2943FE0A322D280D1101092FC016D
:103250008091FA01877099F0DD2089F0812F807FBD
:10326000803421F080E2800F883048F082E00E94B4
:10327000300D8091FA018770CC24C3948111C12C48
:10328000B12EB2942FE0B222FBE0FB1508F44ACD38
:10329000EB2DF0E0EC5FFC4D0C9448221F93CF9394
:1032A000DF9380919F01807FA9F480919C01882306
:1032B00089F08091D101D091A00160919A01709123
:1032C0009B01A0919D01B0919E01C62FC72316E0DE
:1032D000D81304C0DF91CF911F91089590E010970B
:1032E00011F0CF3F19F401968770F2CF189F90012B
:1032F000199F300D1124F901EF55FE4F41814713FD
:10330000F2CF40814613EFCF42814111ECCF438190
:1033100054814A1B5B0B483C510528F780919F0163
:103320008F70806180939F01F901EA55FE4F808183
:103330008F70806180838AE991E00E949313DF910E
:10334000CF911F910C94E407AF92BF92CF92DF927E
:10335000EF92FF920F931F93CF93DF93CDB7DEB71A
:1033600061970FB6F894DEBF0FBECDBF8C0185E02C
:10337000F801DE011D9601900D928A95E1F7F801A2
:1033800080819181E2802AE9A22E21E0B22E609113
:103390009D0170919E016115710509F43EC1309146
:1033A0009A0140919B01232F24232F3F09F435C11B
:1033B000C380D480F0909C01F601E61BF70BFF2040
:1033C00009F4FBC020919F01522F507FE83CF1058A
:1033D00008F0BBC0511178C0FE2C491321C038132E
:1033E0001FC0E1101DC02F70206120939F01C501F7
:1033F0000E94931380919F01F80185838F2D619620
:103400000FB6F894DEBF0FBECDBFDF91CF911F91F5
:103410000F91FF90EF90DF90CF90BF90AF90089505
:10342000CD2829F0282F29232F3F09F014C120E0AF
:10343000F22FF170DF2E20FF3DC02091D10140918D
:10344000A00156E0241315C08D879E878D859E852B
:103450000E945E0B292F22952F702230F8F0243025
:1034600020F59F70F9F0F8019581907FD9F4D12C67
:103470001FC030E0529FF001539FF00D1124EF5513
:10348000FE4F6181961306C06081861303C062817E
:10349000E61210C02F5F3F4F2770D4CF9F7011F0FE
:1034A000882329F3805E883010F3C8010E949313AB
:1034B000FD2CA4CFEE2009F4A1CF80919F01816063
:1034C00080939F01F12C9ACF491312C0381310C07A
:1034D000E1100EC0F8012583C8010E94931386E015
:1034E000F801AAE9B1E001900D928A95E1F786CF43
:1034F0008D879E878D859E850E94680B882309F1A4
:10350000EE20F9F080919F01803270F020919A01B5
:1035100030919B0138872F831986DB86CA868C877A
:10352000CE0107960E94931386E0F801AAE9B1E064
:1035300001900D928A95E1F70E944E19FF24F394B1
:103540005DCFC8010E949313F9CF51110AC08AE9D7
:1035500091E00E94931386E0F50111928A95E9F7B4
:10356000B1CF49130FC038130DC0E1100BC0F801E3
:103570002583C8010E94931386E0F50111928A9574
:10358000E9F73CCF8D879E878D859E850E94680BCD
:103590008823B9F2EE20A9F280919F01803220F2B7
:1035A00020919A0130919B013A8329831B82DD820D
:1035B000CC828E83CE010196B5CFE83CF105E0F6D2
:1035C000FE2CEE2009F4BDCF491316C0381314C0E9
:1035D00080919F0180FD83CF982F907F09F47FCF4A
:1035E000F8018583903F09F477CF982F907F905F03
:1035F0008F70892B858370CF8D879E878D859E8563
:103600000E94680B811190CF80919F01816080930F
:103610009F01C8010E949313F1CEEE2009F491CFCF
:103620008D879E878D859E850E94680BF82E882346
:1036300009F487CF86E0F801AAE9B1E001900D9284
:103640008A95E1F780919A0190919B010E945E0B0F
:103650000E944E19D3CE21E02E25EACE1F93CF93A0
:10366000DF93CDB7DEB767970FB6F894DEBF0FBE16
:10367000CDBF4B8B5C8B6D8B7E8B8F8B1A8A198A9F
:1036800085E0FE017396DE011D9601900D928A95EC
:10369000E1F786E0FE013D96DE01179601900D925E
:1036A0008A95E1F7CE0107960E94A419811112C0F4
:1036B00086E0FE013796DE01119601900D928A9503
:1036C000E1F78A859B85892B29F08F81988589234D
:1036D0008F3FB1F516E08091D1019091A00189133F
:1036E0001DC067960FB6F894DEBF0FBECDBFDF9149
:1036F000CF911F91089596E0929FD001939FB00DB6
:103700001124AF55BE4FFE01319601900D929A954E
:10371000E1F78093A0010E94E407DCCF819FC00104
:1037200011248F559E4F0E94A4198823D1F28091B5
:10373000D10190E00196877099278093D101CBCF7A
:103740002091A00130E0C90101968770992740912E
:10375000D1014817190679F60E94730D1092A00145
:103760001092D10186E0EAE9F1E0DF011D928A952D
:10377000E9F7B0CFAF92BF92CF92DF92EF92FF9274
:103780000F931F93CF93DF938DE4E82E81E0F82E03
:1037900005E012E06801D0E0AA24A394B12CD7017F
:1037A0008D917D01F894E82FE295EF70F0E021A172
:1037B0008F70A50102C0440F551F8A95E2F7CA0118
:1037C000922F982B91A392A18095892382A378941C
:1037D00050EA5A95F1F7E7E5F1E030E020E0C0E08B
:1037E0004191A42FA295AF70B0E090968C9190E09B
:1037F0004F7002C0959587954A95E2F780FD46C0C7
:103800008A2D022E01C0880F0A94EAF7C82B2F5F79
:103810003F4F2630310521F7F701319780810E9413
:103820003B08D6018C91C81799F1CC9381E0D82B35
:10383000BFEFCB1ADB0AE2E5EE16E1E0FE0609F087
:10384000AECFC0911002DD2329F181E080938E017B
:103850000E94970C90938D0180938C0180918C0134
:1038600090918D010E94D4060697C0F0EC2FF0E0F5
:10387000E25DFD4F8AE092E0D8012D918D01219308
:103880008A179B07C9F710928E0108C080E0BECF4F
:1038900080E0CDCF80918E018111E0CF0E94300970
:1038A0008823D9F040910F0250E0425D5D4F04E65D
:1038B00010E025E030E060E082E30E948321109276
:1038C0008F018D2FDF91CF911F910F91FF90EF907E
:1038D000DF90CF90BF90AF900895E0911002F0E09C
:1038E000E25DFD4F85E0A1E7B2E001900D928A957F
:1038F000E1F7E7CFCDB7DEB7AA970FB6F894DEBFF2
:103900000FBECDBF84B7877F84BF0FB6F894A8954C
:1039100080916000886180936000109260000FBE0B
:1039200080E890E00FB6F894809361009093610076
:103930000FBE85B7806885BF85B7806885BF0E9448
:10394000DA020E94CD038091E20084608093E2005D
:10395000789480916A028823A1F01091E9001F7089
:103960009091EC00892F817090FD80E8182B1092C7
:10397000E9008091E80083FD0E94880D1F7010937C
:10398000E90082E084BD93E095BD9AEF97BD8093F6
:103990006E000E943009809304010E943009811159
:1039A0000E94AA20809104018091040195E0811178
:1039B00090E09093100285E0891B80930F0286E6C9
:1039C0000E943B0887E90E943B0886EC0E943B0866
:1039D00084E30E943B0885E30E943B0886E30E9443
:1039E0003B0882E30E943B0883E30E943B0881E39B
:1039F0000E943B0887EF0E943B0886EF0E943B082D
:103A0000E5E0F2E0AEE2B2E011921D9222E0EF308A
:103A1000F207D1F70E94BA1B8FE39CE90197F1F7F7
:103A200000C000000E94BA1B80912E0280FF0BC0D4
:103A300080E00E94F10B6FEF7FEF90E080E00E944A
:103A400095220E94C30690E080E00E9471228C3E85
:103A50009E4F11F00E94090C0E943009811103C091
:103A600082E30E94D22182E290E00E9469228132A8
:103A700009F02EC383E290E00E946922813009F0B0
:103A800027C384E290E00E946922803209F020C3BB
:103A900090E080E00E9471228C3E9E4F11F00E94C7
:103AA000090C82E090E00E946922809323020E9428
:103AB0005109909312028093110283E090E00E94DA
:103AC0006922682F70E090E080E00E94690D87E035
:103AD00091E09093140280931302CC24CA94DD24C5
:103AE000D3944AEF242E50E1752E68E7362E7CE001
:103AF000472EE9E05E2E8EE292E0FAE06F2E680E2D
:103B0000A8E1EA2EF12C80916A02853009F4FEC00A
:103B10000E94BA1B0E943009882309F437C1E4E2ED
:103B2000F2E0AEE2B2E010E000E0302F8D912191A2
:103B3000281709F425C190E0BB24B3942827422F0D
:103B40004B2109F418C199A33AA38B2191E009F400
:103B500090E09BA30E94970C8160782F9DA38CA37B
:103B600049A15AA16BA18DA10E942E1BF801EC5D09
:103B7000FD4F8081B826B08286E0ECE1F2E0DE0104
:103B8000119601900D928A95E1F7A0901E02B090D7
:103B90001F02109120020091210210921E02109229
:103BA0001F0210922002109221028A2D8B2991F07F
:103BB00080911A0290911B020E94D406AC01909150
:103BC0001902992309F4F2C08091060184171506A1
:103BD00008F4FAC0812F802B09F448C080911702A5
:103BE000909118020E94D4069C019091160299238C
:103BF00009F484C225363105C8F19F3F19F09F5F53
:103C000090931602112359F00E94D8059FEF1116C8
:103C10000CF491E0899F802D1124809320020023D1
:103C200059F00E94D8059FEF10160CF491E0899F7F
:103C3000802D112480932102309120023323B1F092
:103C400020912102222391F045EB3403C00111247D
:103C5000992309F4F6C09093200245EB24039001C8
:103C60001124332309F4F0C03093210280911E0205
:103C700090911F02892B90912002892B9091210213
:103C8000892B11F00E94A30C86E0FE013196ACE175
:103C9000B2E001900D928A95E1F70E942F08909171
:103CA0002202891721F00E942F088093220280911E
:103CB0006A02843009F027CF83E08093E900809185
:103CC000E80082FF20CF8091E80090E085FF0CC0E3
:103CD0000E94F90230E2A32EB12C8E010F5F1F4F1C
:103CE000882309F4BEC091E08091E8008B7780932F
:103CF000E800992309F407CFE981E150E33108F0A6
:103D0000F8C0F0E0E05FFC4D0C94482280916A021C
:103D1000843011F11092150280E40FB6F894A89542
:103D2000E09260000FBE8093600083B7817F846063
:103D300083BF83B7816083BF7894889583B78E7F74
:103D400083BF0FB6F894A895809160008861809336
:103D50006000109260000FBE80916002882309F419
:103D6000D2CE0E94BA1BEEE2F2E0819181119BC19A
:103D70006E12FBCFC8CE9F5FBB0C963009F0DFCE32
:103D80000F5F1F4F0A30110509F0CFCECEA2CFA290
:103D900018A60E94970C8160782F9AA789A74EA138
:103DA0005FA168A58AA50E942E1BE6CE2091050181
:103DB0008AE0289F900111242417350708F00ACFC4
:103DC0009F5F9093190202C09F3FD1F7AA2059F03C
:103DD0000E9411069FEF1A140CF491E0899F802D28
:103DE000112480931E02BB2059F00E9411069FEF00
:103DF0001B140CF491E0899F802D112480931F02E5
:103E000030911E02332309F4E5CE20911F022223B4
:103E100009F4E0CE45EB3403C0011124992359F095
:103E200090931E0245EB240390011124332331F0BB
:103E300030931F02CFCED0921E02F4CFD0921F0239
:103E4000C9CED092200209CFD09221020FCF80910B
:103E5000F100F80181938F01F1E0AF1AB10809F484
:103E600042CF8091E80085FDF2CF8091E8008B770A
:103E70008093E8000E94F902882399F334CF1A82D4
:103E80005B82CE0101960E9454033DCE8A8182302E
:103E900009F42BC18330A1F0813059F52FB7F89484
:103EA000609138027091390280913A0290913B0200
:103EB0002FBF0E944E226B837C838D839E83E1CF34
:103EC000DE011396EEE2F2E081918D9322E0E83379
:103ED000F207D1F7D6CF8A81823059F46B817C8189
:103EE0008D819E810E944E2285E290E00E94772281
:103EF000C8CFC982C6CF4C816B818A810E945F097D
:103F00009827892798279E838D83BBCF0D811E819B
:103F10001027012710278A81AB80A49C500111240F
:103F2000839DA00CB11C11248C8190E0880F991FF7
:103F3000A80EB91E612FC50186960E947722602FB8
:103F4000C5018796D3CF0E948C0B9BCF7A8299CFE5
:103F5000DA822B8296CF0A811B8110270127102736
:103F6000CE0101965C018C80FC01E80DF11D4F0132
:103F7000C8018A5F9D4FA814B90409F482CF0A3F93
:103F8000F1E01F0750F40E946922F50184830F5F5E
:103F90001F4FFFEFAF1ABF0AEBCFF5011482F7CF27
:103FA0000A811B81102701271027CE0101964C01A1
:103FB000AC80A00EB12EB11CC8018A5F9D4FA01627
:103FC000B10609F45ECF0A3FE1E01E0720F4F401D8
:103FD00064810E947722FFEF8F1A9F0A0F5F1F4FA5
:103FE000EBCF0E94E10B4DCF24E02A834ACF0A8118
:103FF0001B81102701271027CE0101965C018C80C0
:10400000FC01E80DF11D4F01C80186968A149B043E
:1040100009F437CF003EF1E01F0750F40E946922F7
:10402000F50184830F5F1F4FFFEFAF1ABF0AECCF7C
:10403000F5011482F7CF0A811B8110270127102771
:10404000CE0101964C01AC80A00EB12EB11CC8016E
:104050008696A016B10609F414CF003EE1E01E07D3
:1040600020F4F40164810E947722FFEF8F1A9F0AE7
:104070000F5F1F4FECCF80E00E94F10B6FEF7FEFDF
:1040800090E080E00E949522FCCECE0101960E9435
:1040900054032FEF41EE84E0215040408040E1F78F
:1040A00000C00000CECC79BC82E189BD09B400FE1D
:1040B000FDCF8091D8008F7D8093D8008091E00063
:1040C00082608093E0008091E00081FDFCCF1BCDF9
:1040D00060E085E290E00E9477220E948C0B0E94B3
:1040E000E10B81E00E94F10BD3CC85E290E00E94CD
:1040F00069221B821C821D828E83C3CE2D323140E9
:1041000008F07DCDB3CD1F921FB61F9211248F935F
:104110009F93AF93BF9380911502811113C080913B
:10412000380290913902A0913A02B0913B02419637
:10413000A11DB11D8093380290933902A0933A02D9
:10414000B0933B02BF91AF919F918F911F901FBE83
:104150001F9018951092B90088E48093B8000895D4
:10416000EF92FF920F931F93CF93DF93182FEB01E2
:104170001092BC0084EA8093BC000E94970C7C01E2
:104180008091BC0087FF27C08091B900887F88306C
:1041900029F08091B900887F8031D9F51093BB0058
:1041A00084E88093BC000E94970C8C018091BC0035
:1041B00087FF24C02091B900287F90E080E028315B
:1041C000B1F081E090E0203411F490E080E091952E
:1041D000819591090CC0CF3FDC0791F20E94970CAA
:1041E0008E199F098C179D0758F28EEF9FEFDF9174
:1041F000CF911F910F91FF90EF900895CF3FDC0773
:10420000A9F20E94970C801B910B8C179D0770F2EE
:10421000ECCF8FEF9FEFEBCF0F931F93CF93DF93F5
:10422000EB018093BB0084E88093BC000E94970C54
:104230008C018091BC0087FF11C02091B900287FBC
:1042400081E090E0283211F490E080E09195819532
:104250009109DF91CF911F910F910895CF3FDC0716
:1042600041F30E94970C801B910B8C179D0708F35C
:104270008EEF9FEFEECF0F931F93CF93DF93EC0161
:1042800084EC8093BC000E94970C8C018091BC0050
:1042900087FF08C08091BB0090E0DF91CF911F9114
:1042A0000F910895CF3FDC0789F30E94970C801B84
:1042B000910B8C179D0750F38EEF9FEFEECF0F936E
:1042C0001F93CF93DF93EC0184E88093BC000E949E
:1042D000970C8C018091BC0087FF08C08091BB00C7
:1042E00090E0DF91CF911F910F910895CF3FDC07B0
:1042F00089F30E94970C801B910B8C179D0750F33C
:104300008EEF9FEFEECFCF92DF92EF92FF920F935F
:104310001F93CF93DF93F82EE62EEA016901B801CF
:104320000E94B02097FD15C0B8018E2D0E940C216F
:1043300097FD0FC0B8018F2D81600E94B020F12C35
:10434000E12C21E0C21AD108EC14FD0400F597FF1E
:1043500011C024E92093BC001816190614F490E04B
:1043600080E0DF91CF911F910F91FF90EF90DF9050
:10437000CF900895C8010E943B2197FD04C0FE0123
:10438000EE0DFF1D80832FEFE21AF20ADDCF97FDBD
:10439000E0CFC8010E945F2197FDDBCFCC0DDD1D72
:1043A0008883D7CF8093BA0085EC8093BC000895B2
:1043B0001F921FB61F9211248F939F93EF93FF9329
:1043C0008091B900887F8038C1F038F4882309F4DF
:1043D00048C0803679F081E022C0883A11F0883BED
:1043E000D1F7E0917002F0E0EF58FD4F80818093AB
:1043F000BB0031C010926F02EECF80916F0281112D
:1044000022C08091BB0080937002809170028E3137
:10441000C0F01092700280E091E090936F02909152
:10442000BC008295880F880F807C892B85688093DB
:10443000BC00FF91EF919F918F911F901FBE1F9025
:10444000189581E0E9CFE0917002F0E08091BB0027
:10445000EF58FD4F8083809170028F5F80937002D0
:10446000BACF1092BC00B7CF97FB072E16F400947A
:1044700007D077FD09D00E94552207FC05D03EF4F5
:10448000909581959F4F0895709561957F4F089500
:10449000EE0FFF1F0590F491E02D099469279627F0
:1044A00069277827872778270895AA1BBB1B51E126
:1044B00007C0AA1FBB1FA617B70710F0A61BB70B94
:1044C000881F991F5A95A9F780959095BC01CD0139
:1044D0000895F999FECF92BD81BDF89A992780B5CC
:1044E0000895A8E1B0E042E050E00C949D22262F10
:1044F000F999FECF92BD81BDF89A019700B40216DA
:1045000039F01FBA20BD0FB6F894FA9AF99A0FBE87
:1045100008950396272F0E9478220E947722252F44
:104520000E947822242F0C9478220196272F0E9433
:1045300078220C947722DC01CB01FC01F999FECFA3
:1045400006C0F2BDE1BDF89A319600B40D9241501B
:104550005040B8F70895F894FFCF770B770B800B96
:10456000800B820B800B800B800B770B770B870BFC
:10457000800B800B870B6D0E950E3610950E361046
:10458000C80EE90E3610E70FF40F9B119211A81117
:104590009011ED11ED119011ED11ED11C411ED110E
:1045A000CF11DA11ED11ED11ED11ED119011ED11A9
:1045B000ED119011ED11B611ED11ED11EB11EB11A3
:1045C000EB11EB11EB11EB11EB11EB11EB11E51111
:1045D000ED119B118E11ED11ED11ED11ED11ED119C
:1045E000ED11ED11ED11ED11ED11E511ED11ED11E3
:1045F0009011ED11E911E911E911E911E911E91140
:10460000E911E911E911E5115D165D16CC16CC161C
:1046100022173C179216921647171D182C182C18A3
:104620003F1F461F6B1F7B1F861FA31F791F791F0C
:10463000791F3B204520A61FA81FAB1FD01FF11FCD
:06464000F41FF71F1B2010
:104646002808140A011E328C04F008CF08CB08C7CC
:10465600080101020304050607080900818283E2B6
:1046660000E900EA00B500B600B700CD008301CC32
:10467600008A0192019401210223022402250226C6
:104686000227022A02B300B4006F0070006697C6C4
:104696003435000000000036323331F7F64022BCD4
:0C46A6008A016801AC005C0475049504F6
:00000001FF
